{
  "contractName": "Vault",
  "abi": [
    {
      "inputs": [
        {
          "internalType": "contract IERC20",
          "name": "token_",
          "type": "address"
        },
        {
          "internalType": "uint256",
          "name": "duration_",
          "type": "uint256"
        }
      ],
      "stateMutability": "nonpayable",
      "type": "constructor"
    },
    {
      "anonymous": false,
      "inputs": [
        {
          "indexed": true,
          "internalType": "address",
          "name": "user",
          "type": "address"
        },
        {
          "indexed": false,
          "internalType": "uint256",
          "name": "amount",
          "type": "uint256"
        }
      ],
      "name": "Bonded",
      "type": "event"
    },
    {
      "anonymous": false,
      "inputs": [
        {
          "indexed": true,
          "internalType": "address",
          "name": "previousOperator",
          "type": "address"
        },
        {
          "indexed": true,
          "internalType": "address",
          "name": "newOperator",
          "type": "address"
        }
      ],
      "name": "OperatorTransferred",
      "type": "event"
    },
    {
      "anonymous": false,
      "inputs": [
        {
          "indexed": true,
          "internalType": "address",
          "name": "previousOwner",
          "type": "address"
        },
        {
          "indexed": true,
          "internalType": "address",
          "name": "newOwner",
          "type": "address"
        }
      ],
      "name": "OwnershipTransferred",
      "type": "event"
    },
    {
      "anonymous": false,
      "inputs": [
        {
          "indexed": true,
          "internalType": "bytes32",
          "name": "role",
          "type": "bytes32"
        },
        {
          "indexed": true,
          "internalType": "bytes32",
          "name": "previousAdminRole",
          "type": "bytes32"
        },
        {
          "indexed": true,
          "internalType": "bytes32",
          "name": "newAdminRole",
          "type": "bytes32"
        }
      ],
      "name": "RoleAdminChanged",
      "type": "event"
    },
    {
      "anonymous": false,
      "inputs": [
        {
          "indexed": true,
          "internalType": "bytes32",
          "name": "role",
          "type": "bytes32"
        },
        {
          "indexed": true,
          "internalType": "address",
          "name": "account",
          "type": "address"
        },
        {
          "indexed": true,
          "internalType": "address",
          "name": "sender",
          "type": "address"
        }
      ],
      "name": "RoleGranted",
      "type": "event"
    },
    {
      "anonymous": false,
      "inputs": [
        {
          "indexed": true,
          "internalType": "bytes32",
          "name": "role",
          "type": "bytes32"
        },
        {
          "indexed": true,
          "internalType": "address",
          "name": "account",
          "type": "address"
        },
        {
          "indexed": true,
          "internalType": "address",
          "name": "sender",
          "type": "address"
        }
      ],
      "name": "RoleRevoked",
      "type": "event"
    },
    {
      "anonymous": false,
      "inputs": [
        {
          "indexed": true,
          "internalType": "address",
          "name": "user",
          "type": "address"
        },
        {
          "indexed": false,
          "internalType": "uint256",
          "name": "amount",
          "type": "uint256"
        }
      ],
      "name": "Unbonded",
      "type": "event"
    },
    {
      "anonymous": false,
      "inputs": [
        {
          "indexed": true,
          "internalType": "address",
          "name": "user",
          "type": "address"
        },
        {
          "indexed": false,
          "internalType": "uint256",
          "name": "amount",
          "type": "uint256"
        }
      ],
      "name": "Withdrawn",
      "type": "event"
    },
    {
      "inputs": [],
      "name": "BOARDROOM_ROLE",
      "outputs": [
        {
          "internalType": "bytes32",
          "name": "",
          "type": "bytes32"
        }
      ],
      "stateMutability": "view",
      "type": "function"
    },
    {
      "inputs": [],
      "name": "DEFAULT_ADMIN_ROLE",
      "outputs": [
        {
          "internalType": "bytes32",
          "name": "",
          "type": "bytes32"
        }
      ],
      "stateMutability": "view",
      "type": "function"
    },
    {
      "inputs": [
        {
          "internalType": "uint256",
          "name": "_duration",
          "type": "uint256"
        }
      ],
      "name": "changeLockDuration",
      "outputs": [],
      "stateMutability": "nonpayable",
      "type": "function"
    },
    {
      "inputs": [],
      "name": "contractionBoardroom",
      "outputs": [
        {
          "internalType": "contract IVaultBoardroom",
          "name": "",
          "type": "address"
        }
      ],
      "stateMutability": "view",
      "type": "function"
    },
    {
      "inputs": [],
      "name": "duration",
      "outputs": [
        {
          "internalType": "uint256",
          "name": "",
          "type": "uint256"
        }
      ],
      "stateMutability": "view",
      "type": "function"
    },
    {
      "inputs": [],
      "name": "enableDeposits",
      "outputs": [
        {
          "internalType": "bool",
          "name": "",
          "type": "bool"
        }
      ],
      "stateMutability": "view",
      "type": "function"
    },
    {
      "inputs": [],
      "name": "expansionBoardroom",
      "outputs": [
        {
          "internalType": "contract IVaultBoardroom",
          "name": "",
          "type": "address"
        }
      ],
      "stateMutability": "view",
      "type": "function"
    },
    {
      "inputs": [],
      "name": "getLockDuration",
      "outputs": [
        {
          "internalType": "uint256",
          "name": "",
          "type": "uint256"
        }
      ],
      "stateMutability": "view",
      "type": "function"
    },
    {
      "inputs": [
        {
          "internalType": "bytes32",
          "name": "role",
          "type": "bytes32"
        }
      ],
      "name": "getRoleAdmin",
      "outputs": [
        {
          "internalType": "bytes32",
          "name": "",
          "type": "bytes32"
        }
      ],
      "stateMutability": "view",
      "type": "function"
    },
    {
      "inputs": [
        {
          "internalType": "bytes32",
          "name": "role",
          "type": "bytes32"
        },
        {
          "internalType": "uint256",
          "name": "index",
          "type": "uint256"
        }
      ],
      "name": "getRoleMember",
      "outputs": [
        {
          "internalType": "address",
          "name": "",
          "type": "address"
        }
      ],
      "stateMutability": "view",
      "type": "function"
    },
    {
      "inputs": [
        {
          "internalType": "bytes32",
          "name": "role",
          "type": "bytes32"
        }
      ],
      "name": "getRoleMemberCount",
      "outputs": [
        {
          "internalType": "uint256",
          "name": "",
          "type": "uint256"
        }
      ],
      "stateMutability": "view",
      "type": "function"
    },
    {
      "inputs": [
        {
          "internalType": "address",
          "name": "who",
          "type": "address"
        }
      ],
      "name": "getStakedAmount",
      "outputs": [
        {
          "internalType": "uint256",
          "name": "",
          "type": "uint256"
        }
      ],
      "stateMutability": "view",
      "type": "function"
    },
    {
      "inputs": [
        {
          "internalType": "address",
          "name": "who",
          "type": "address"
        }
      ],
      "name": "getStakerDetails",
      "outputs": [
        {
          "internalType": "uint256",
          "name": "",
          "type": "uint256"
        },
        {
          "internalType": "uint256",
          "name": "",
          "type": "uint256"
        },
        {
          "internalType": "uint256",
          "name": "",
          "type": "uint256"
        }
      ],
      "stateMutability": "view",
      "type": "function"
    },
    {
      "inputs": [
        {
          "internalType": "bytes32",
          "name": "role",
          "type": "bytes32"
        },
        {
          "internalType": "address",
          "name": "account",
          "type": "address"
        }
      ],
      "name": "grantRole",
      "outputs": [],
      "stateMutability": "nonpayable",
      "type": "function"
    },
    {
      "inputs": [
        {
          "internalType": "bytes32",
          "name": "role",
          "type": "bytes32"
        },
        {
          "internalType": "address",
          "name": "account",
          "type": "address"
        }
      ],
      "name": "hasRole",
      "outputs": [
        {
          "internalType": "bool",
          "name": "",
          "type": "bool"
        }
      ],
      "stateMutability": "view",
      "type": "function"
    },
    {
      "inputs": [],
      "name": "isOperator",
      "outputs": [
        {
          "internalType": "bool",
          "name": "",
          "type": "bool"
        }
      ],
      "stateMutability": "view",
      "type": "function"
    },
    {
      "inputs": [],
      "name": "operator",
      "outputs": [
        {
          "internalType": "address",
          "name": "",
          "type": "address"
        }
      ],
      "stateMutability": "view",
      "type": "function"
    },
    {
      "inputs": [],
      "name": "owner",
      "outputs": [
        {
          "internalType": "address",
          "name": "",
          "type": "address"
        }
      ],
      "stateMutability": "view",
      "type": "function"
    },
    {
      "inputs": [],
      "name": "renounceOwnership",
      "outputs": [],
      "stateMutability": "nonpayable",
      "type": "function"
    },
    {
      "inputs": [
        {
          "internalType": "bytes32",
          "name": "role",
          "type": "bytes32"
        },
        {
          "internalType": "address",
          "name": "account",
          "type": "address"
        }
      ],
      "name": "renounceRole",
      "outputs": [],
      "stateMutability": "nonpayable",
      "type": "function"
    },
    {
      "inputs": [
        {
          "internalType": "bytes32",
          "name": "role",
          "type": "bytes32"
        },
        {
          "internalType": "address",
          "name": "account",
          "type": "address"
        }
      ],
      "name": "revokeRole",
      "outputs": [],
      "stateMutability": "nonpayable",
      "type": "function"
    },
    {
      "inputs": [
        {
          "internalType": "address",
          "name": "",
          "type": "address"
        }
      ],
      "name": "stakingDetails",
      "outputs": [
        {
          "internalType": "uint256",
          "name": "deadline",
          "type": "uint256"
        },
        {
          "internalType": "uint256",
          "name": "amount",
          "type": "uint256"
        },
        {
          "internalType": "uint256",
          "name": "updatedOn",
          "type": "uint256"
        }
      ],
      "stateMutability": "view",
      "type": "function"
    },
    {
      "inputs": [],
      "name": "token",
      "outputs": [
        {
          "internalType": "contract IERC20",
          "name": "",
          "type": "address"
        }
      ],
      "stateMutability": "view",
      "type": "function"
    },
    {
      "inputs": [
        {
          "internalType": "address",
          "name": "newOperator_",
          "type": "address"
        }
      ],
      "name": "transferOperator",
      "outputs": [],
      "stateMutability": "nonpayable",
      "type": "function"
    },
    {
      "inputs": [
        {
          "internalType": "address",
          "name": "newOwner",
          "type": "address"
        }
      ],
      "name": "transferOwnership",
      "outputs": [],
      "stateMutability": "nonpayable",
      "type": "function"
    },
    {
      "inputs": [],
      "name": "totalSupply",
      "outputs": [
        {
          "internalType": "uint256",
          "name": "",
          "type": "uint256"
        }
      ],
      "stateMutability": "view",
      "type": "function"
    },
    {
      "inputs": [
        {
          "internalType": "contract IVaultBoardroom",
          "name": "expansionBoardroom_",
          "type": "address"
        },
        {
          "internalType": "contract IVaultBoardroom",
          "name": "contractionBoardroom_",
          "type": "address"
        }
      ],
      "name": "setBoardrooms",
      "outputs": [],
      "stateMutability": "nonpayable",
      "type": "function"
    },
    {
      "inputs": [
        {
          "internalType": "address",
          "name": "who",
          "type": "address"
        }
      ],
      "name": "balanceOf",
      "outputs": [
        {
          "internalType": "uint256",
          "name": "",
          "type": "uint256"
        }
      ],
      "stateMutability": "view",
      "type": "function"
    },
    {
      "inputs": [],
      "name": "totalBondedSupply",
      "outputs": [
        {
          "internalType": "uint256",
          "name": "",
          "type": "uint256"
        }
      ],
      "stateMutability": "view",
      "type": "function"
    },
    {
      "inputs": [
        {
          "internalType": "address",
          "name": "who",
          "type": "address"
        }
      ],
      "name": "balanceWithoutBonded",
      "outputs": [
        {
          "internalType": "uint256",
          "name": "",
          "type": "uint256"
        }
      ],
      "stateMutability": "view",
      "type": "function"
    },
    {
      "inputs": [
        {
          "internalType": "bool",
          "name": "val",
          "type": "bool"
        }
      ],
      "name": "toggleDeposits",
      "outputs": [],
      "stateMutability": "nonpayable",
      "type": "function"
    },
    {
      "inputs": [
        {
          "internalType": "uint256",
          "name": "amount",
          "type": "uint256"
        }
      ],
      "name": "bond",
      "outputs": [],
      "stateMutability": "nonpayable",
      "type": "function"
    },
    {
      "inputs": [
        {
          "internalType": "address",
          "name": "who",
          "type": "address"
        },
        {
          "internalType": "uint256",
          "name": "amount",
          "type": "uint256"
        }
      ],
      "name": "bondFor",
      "outputs": [],
      "stateMutability": "nonpayable",
      "type": "function"
    },
    {
      "inputs": [
        {
          "internalType": "uint256",
          "name": "amount",
          "type": "uint256"
        }
      ],
      "name": "unbond",
      "outputs": [],
      "stateMutability": "nonpayable",
      "type": "function"
    },
    {
      "inputs": [],
      "name": "withdraw",
      "outputs": [],
      "stateMutability": "nonpayable",
      "type": "function"
    }
  ],
  "bytecode": "0x6080604052620151806002556009805460ff191660011790553480156200002557600080fd5b5060405162001b7938038062001b79833981016040819052620000489162000278565b8060006200005562000164565b600180546001600160a01b0319166001600160a01b038316908117909155604051919250906000907f8be0079c531659141344cd1fd0a4f28419497f9722a3daafe3b4186f6b6457e0908290a350600255620000b062000164565b600480546001600160a01b0319166001600160a01b0392831617908190556040519116906000907f74da04524d50c64947f5dd5381ef1a4dca5cba8ed1d816243f9e48aa0b5617ed908290a3600580546001600160a01b0319166001600160a01b0384161790556200012d60006200012762000164565b62000168565b6200015c7f6d70c91ad985a39eea8701dc54d183798bc9f1bfb6890f5f9b2ba660db7373d06200012762000164565b5050620002b2565b3390565b62000174828262000178565b5050565b6000828152602081815260409091206200019d918390620009bd620001f1821b17901c565b156200017457620001ad62000164565b6001600160a01b0316816001600160a01b0316837f2f8788117e7eff1d82e926ec794901d17c78024a50270940304540a733656f0d60405160405180910390a45050565b600062000208836001600160a01b03841662000211565b90505b92915050565b60006200021f838362000260565b62000257575081546001818101845560008481526020808220909301849055845484825282860190935260409020919091556200020b565b5060006200020b565b60009081526001919091016020526040902054151590565b600080604083850312156200028b578182fd5b82516001600160a01b0381168114620002a2578283fd5b6020939093015192949293505050565b6118b780620002c26000396000f3fe608060405234801561001057600080fd5b50600436106102115760003560e01c80638318a9da11610125578063a217fddf116100ad578063d547741f1161007c578063d547741f1461040d578063e239c40014610420578063f2fde38b14610428578063fc0c546a1461043b578063fcff9e5d1461044357610211565b8063a217fddf146103d7578063c105a332146103df578063ca15c873146103f2578063d08bc9ec1461040557610211565b80639010d07c116100f45780639010d07c1461037857806391d148541461038b57806399383f781461039e5780639940686e146103b1578063a019cb4b146103c457610211565b80638318a9da146103335780638da5cb5b146103465780638eef3ea61461034e5780638fb80c731461035657610211565b80632fa8e3fe116101a85780634da6a556116101775780634da6a556146102e8578063570ca735146102fb5780635e4c57a41461031057806370a0823114610318578063715018a61461032b57610211565b80632fa8e3fe146102b057806336568abe146102b85780633ccfd60b146102cb5780634456eda2146102d357610211565b806327a59fb8116101e457806327a59fb81461026257806327de9e321461027757806329605e771461028a5780632f2ff15d1461029d57610211565b80630fb5a6b41461021657806318160ddd146102345780631c2ac8131461023c578063248a9ca31461024f575b600080fd5b61021e61044b565b60405161022b919061140b565b60405180910390f35b61021e610451565b61021e61024a36600461129b565b610457565b61021e61025d36600461131a565b610490565b61027561027036600461131a565b6104a5565b005b61027561028536600461131a565b6104f2565b61027561029836600461129b565b6104ff565b6102756102ab366004611332565b610547565b61021e61058f565b6102756102c6366004611332565b6105b3565b6102756105f5565b6102db610600565b60405161022b9190611400565b61021e6102f636600461129b565b610626565b610303610644565b60405161022b91906113af565b6102db610653565b61021e61032636600461129b565b61065c565b610275610677565b610275610341366004611382565b610700565b61030361072e565b61030361073d565b61036961036436600461129b565b61074c565b60405161022b93929190611803565b610303610386366004611361565b610774565b6102db610399366004611332565b610795565b6102756103ac3660046112e2565b6107ad565b6102756103bf36600461131a565b6107ff565b6103696103d236600461129b565b610809565b61021e61082a565b6102756103ed3660046112b7565b61082f565b61021e61040036600461131a565b610881565b61021e610898565b61027561041b366004611332565b61089e565b61021e6108d8565b61027561043636600461129b565b6108de565b61030361099f565b6103036109ae565b60025481565b60085490565b60008061046333610626565b6001600160a01b0384166000908152600b602052604090205490915061048990826109d2565b9392505050565b60009081526020819052604090206002015490565b6104ad6109de565b6001600160a01b03166104be61072e565b6001600160a01b0316146104ed5760405162461bcd60e51b81526004016104e49061167f565b60405180910390fd5b600255565b6104fc33826109e2565b50565b6105076109de565b6001600160a01b031661051861072e565b6001600160a01b03161461053e5760405162461bcd60e51b81526004016104e49061167f565b6104fc81610ad0565b600082815260208190526040902060020154610565906103996109de565b6105815760405162461bcd60e51b81526004016104e490611456565b61058b8282610b4e565b5050565b7f6d70c91ad985a39eea8701dc54d183798bc9f1bfb6890f5f9b2ba660db7373d081565b6105bb6109de565b6001600160a01b0316816001600160a01b0316146105eb5760405162461bcd60e51b81526004016104e4906116fa565b61058b8282610bb7565b6105fe33610c20565b565b6004546000906001600160a01b03166106176109de565b6001600160a01b031614905090565b6001600160a01b031660009081526003602052604090206001015490565b6004546001600160a01b031690565b60095460ff1681565b6001600160a01b03166000908152600b602052604090205490565b61067f6109de565b6001600160a01b031661069061072e565b6001600160a01b0316146106b65760405162461bcd60e51b81526004016104e49061167f565b6001546040516000916001600160a01b0316907f8be0079c531659141344cd1fd0a4f28419497f9722a3daafe3b4186f6b6457e0908390a3600180546001600160a01b0319169055565b600680546001600160a01b039384166001600160a01b03199182161790915560078054929093169116179055565b6001546001600160a01b031690565b6006546001600160a01b031681565b6001600160a01b03166000908152600360205260409020600181015481546002909201549092565b600082815260208190526040812061078c9083610de1565b90505b92915050565b600082815260208190526040812061078c9083610ded565b6107b56109de565b6001600160a01b03166107c661072e565b6001600160a01b0316146107ec5760405162461bcd60e51b81526004016104e49061167f565b6009805460ff1916911515919091179055565b6104fc3382610e02565b60036020526000908152604090208054600182015460029092015490919083565b600081565b61085b7f6d70c91ad985a39eea8701dc54d183798bc9f1bfb6890f5f9b2ba660db7373d06103996109de565b6108775760405162461bcd60e51b81526004016104e490611749565b61058b8282610e02565b600081815260208190526040812061078f90610f75565b600a5490565b6000828152602081905260409020600201546108bc906103996109de565b6105eb5760405162461bcd60e51b81526004016104e4906115ab565b60025490565b6108e66109de565b6001600160a01b03166108f761072e565b6001600160a01b03161461091d5760405162461bcd60e51b81526004016104e49061167f565b6001600160a01b0381166109435760405162461bcd60e51b81526004016104e4906114f9565b6001546040516001600160a01b038084169216907f8be0079c531659141344cd1fd0a4f28419497f9722a3daafe3b4186f6b6457e090600090a3600180546001600160a01b0319166001600160a01b0392909216919091179055565b6005546001600160a01b031681565b6007546001600160a01b031681565b600061078c836001600160a01b038416610f80565b600061078c8284611831565b3390565b8160006109ee8261065c565b11610a0b5760405162461bcd60e51b81526004016104e4906116b4565b60008211610a2b5760405162461bcd60e51b81526004016104e490611574565b6001600160a01b0383166000908152600b602052604090205482811015610a645760405162461bcd60e51b81526004016104e4906114a5565b610a6e8484610fca565b610a7784610ffe565b600a54610a8490846109d2565b600a556040516001600160a01b038516907fd24dbf5e9299ce53c3aa9f7227ff1cc8441c2faae04509aa370ca3703385d6b490610ac290869061140b565b60405180910390a250505050565b6001600160a01b038116610af65760405162461bcd60e51b81526004016104e490611632565b6040516001600160a01b038216906000907f74da04524d50c64947f5dd5381ef1a4dca5cba8ed1d816243f9e48aa0b5617ed908290a3600480546001600160a01b0319166001600160a01b0392909216919091179055565b6000828152602081905260409020610b6690826109bd565b1561058b57610b736109de565b6001600160a01b0316816001600160a01b0316837f2f8788117e7eff1d82e926ec794901d17c78024a50270940304540a733656f0d60405160405180910390a45050565b6000828152602081905260409020610bcf90826110e8565b1561058b57610bdc6109de565b6001600160a01b0316816001600160a01b0316837ff6391f5c32d9c69d2a47ea670b442974b53935d1edc7fd64eb21e047a839171b60405160405180910390a45050565b806000610c2c8261065c565b11610c495760405162461bcd60e51b81526004016104e4906116b4565b6001600160a01b03821660009081526003602052604090208054839190610c6f57600080fd5b6001810154610c7d57600080fd5b8054421015610c8b57600080fd5b6001600160a01b0384166000908152600b602052604081205490610cae86610626565b905080821015610cd05760405162461bcd60e51b81526004016104e4906117a6565b600854610cdd90826109d2565b600855610cea82826109d2565b6001600160a01b038088166000908152600b60205260409081902092909255600554915163a9059cbb60e01b815291169063a9059cbb90610d3190899085906004016113e7565b602060405180830381600087803b158015610d4b57600080fd5b505af1158015610d5f573d6000803e3d6000fd5b505050506040513d601f19601f82011682018060405250810190610d8391906112fe565b50610d8f866000610fca565b610d9886610ffe565b856001600160a01b03167f7084f5476618d8e60b11ef0d7d3f06914655adb8793e28ff7f018d4c76d505d582604051610dd1919061140b565b60405180910390a2505050505050565b600061078c83836110fd565b600061078c836001600160a01b038416611156565b60008111610e225760405162461bcd60e51b81526004016104e4906115fb565b60095460ff16610e445760405162461bcd60e51b81526004016104e49061153f565b600854610e51908261116e565b6008556001600160a01b0382166000908152600b6020526040902054610e77908261116e565b6001600160a01b0383166000908152600b6020526040902055600a54610e9d908261116e565b600a556005546040516323b872dd60e01b81526001600160a01b03909116906323b872dd90610ed4908590309086906004016113c3565b602060405180830381600087803b158015610eee57600080fd5b505af1158015610f02573d6000803e3d6000fd5b505050506040513d601f19601f82011682018060405250810190610f2691906112fe565b50610f3082610ffe565b816001600160a01b03167fd0a009034e24a39106653c4903cf28b1947b8a9964d03206648e0f0a5de74a4682604051610f69919061140b565b60405180910390a25050565b600061078f8261117a565b6000610f8c8383611156565b610fc25750815460018181018455600084815260208082209093018490558454848252828601909352604090209190915561078f565b50600061078f565b6001600160a01b0382166000908152600360205260409020600254610fef9042611819565b81554260028201556001015550565b6006546001600160a01b0316156110725760065460405163632447c960e01b81526001600160a01b039091169063632447c99061103f9084906004016113af565b600060405180830381600087803b15801561105957600080fd5b505af115801561106d573d6000803e3d6000fd5b505050505b6007546001600160a01b0316156104fc5760075460405163632447c960e01b81526001600160a01b039091169063632447c9906110b39084906004016113af565b600060405180830381600087803b1580156110cd57600080fd5b505af11580156110e1573d6000803e3d6000fd5b5050505050565b600061078c836001600160a01b03841661117e565b815460009082106111205760405162461bcd60e51b81526004016104e490611414565b82600001828154811061114357634e487b7160e01b600052603260045260246000fd5b9060005260206000200154905092915050565b60009081526001919091016020526040902054151590565b600061078c8284611819565b5490565b600081815260018301602052604081205480156112915760006111a2600183611831565b85549091506000906111b690600190611831565b905060008660000182815481106111dd57634e487b7160e01b600052603260045260246000fd5b906000526020600020015490508087600001848154811061120e57634e487b7160e01b600052603260045260246000fd5b600091825260209091200155611225836001611819565b6000828152600189016020526040902055865487908061125557634e487b7160e01b600052603160045260246000fd5b6001900381819060005260206000200160009055905586600101600087815260200190815260200160002060009055600194505050505061078f565b600091505061078f565b6000602082840312156112ac578081fd5b81356104898161185e565b600080604083850312156112c9578081fd5b82356112d48161185e565b946020939093013593505050565b6000602082840312156112f3578081fd5b813561048981611873565b60006020828403121561130f578081fd5b815161048981611873565b60006020828403121561132b578081fd5b5035919050565b60008060408385031215611344578182fd5b8235915060208301356113568161185e565b809150509250929050565b60008060408385031215611373578182fd5b50508035926020909101359150565b60008060408385031215611394578182fd5b823561139f8161185e565b915060208301356113568161185e565b6001600160a01b0391909116815260200190565b6001600160a01b039384168152919092166020820152604081019190915260600190565b6001600160a01b03929092168252602082015260400190565b901515815260200190565b90815260200190565b60208082526022908201527f456e756d657261626c655365743a20696e646578206f7574206f6620626f756e604082015261647360f01b606082015260800190565b6020808252602f908201527f416363657373436f6e74726f6c3a2073656e646572206d75737420626520616e60408201526e0818591b5a5b881d1bc819dc985b9d608a1b606082015260800190565b60208082526034908201527f426f617264726f6f6d3a20756e626f6e642072657175657374206772656174656040820152731c881d1a185b881cdd185ad95908185b5bdd5b9d60621b606082015260800190565b60208082526026908201527f4f776e61626c653a206e6577206f776e657220697320746865207a65726f206160408201526564647265737360d01b606082015260800190565b6020808252818101527f426f617264726f6f6d3a206465706f73697473206172652064697361626c6564604082015260600190565b6020808252601a908201527f426f617264726f6f6d3a2063616e6e6f7420756e626f6e642030000000000000604082015260600190565b60208082526030908201527f416363657373436f6e74726f6c3a2073656e646572206d75737420626520616e60408201526f2061646d696e20746f207265766f6b6560801b606082015260800190565b60208082526018908201527f426f617264726f6f6d3a2063616e6e6f7420626f6e6420300000000000000000604082015260600190565b6020808252602d908201527f6f70657261746f723a207a65726f206164647265737320676976656e20666f7260408201526c103732bb9037b832b930ba37b960991b606082015260800190565b6020808252818101527f4f776e61626c653a2063616c6c6572206973206e6f7420746865206f776e6572604082015260600190565b60208082526026908201527f426f617264726f6f6d3a20546865206469726563746f7220646f6573206e6f7460408201526508195e1a5cdd60d21b606082015260800190565b6020808252602f908201527f416363657373436f6e74726f6c3a2063616e206f6e6c792072656e6f756e636560408201526e103937b632b9903337b91039b2b63360891b606082015260800190565b60208082526038908201527f5661756c743a206d757374206861766520626f617264726f6f6d20726f6c652060408201527f746f20626f6e6420666f7220736f6d656f6e6520656c73650000000000000000606082015260800190565b60208082526038908201527f426f617264726f6f6d3a2077697468647261772072657175657374206772656160408201527f746572207468616e20756e626f6e64656420616d6f756e740000000000000000606082015260800190565b9283526020830191909152604082015260600190565b6000821982111561182c5761182c611848565b500190565b60008282101561184357611843611848565b500390565b634e487b7160e01b600052601160045260246000fd5b6001600160a01b03811681146104fc57600080fd5b80151581146104fc57600080fdfea2646970667358221220fc1efb012f2203f5f94f349444805bfbdcb768be0ab6840fe2b425f10319681864736f6c63430008000033",
  "immutableReferences": {},
  "source": "// SPDX-License-Identifier: MIT\n\npragma solidity ^0.8.0;\n\nimport {IERC20} from '@openzeppelin/contracts/contracts/token/ERC20/IERC20.sol';\nimport {\n    AccessControl\n} from '@openzeppelin/contracts/contracts/access/AccessControl.sol';\nimport {Operator} from '../../owner/Operator.sol';\nimport {SafeMath} from '@openzeppelin/contracts/contracts/math/SafeMath.sol';\nimport {StakingTimelock} from '../../timelock/StakingTimelock.sol';\nimport {IVaultBoardroom} from '../../interfaces/IVaultBoardroom.sol';\n\n/**\n * A vault is a contract that handles only the bonding & unbonding of tokens;\n * Rewards are handled by the boardroom contracts.\n */\ncontract Vault is AccessControl, StakingTimelock, Operator {\n    using SafeMath for uint256;\n\n    bytes32 public constant BOARDROOM_ROLE = keccak256('BOARDROOM_ROLE');\n\n    /**\n     * Data structures.\n     */\n    struct BondingDetail {\n        uint256 firstBondedOn;\n        uint256 latestBondedOn;\n        uint256 previousBondedOn;\n    }\n\n    /**\n     * State variables.\n     */\n\n    // The staked token.\n    IERC20 public token;\n    IVaultBoardroom public expansionBoardroom;\n    IVaultBoardroom public contractionBoardroom;\n\n    uint256 internal _totalSupply;\n    bool public enableDeposits = true;\n    uint256 internal _totalBondedSupply;\n\n    mapping(address => uint256) internal _balances;\n\n    /**\n     * Modifier.\n     */\n\n    modifier stakerExists(address who) {\n        require(balanceOf(who) > 0, 'Boardroom: The director does not exist');\n        _;\n    }\n\n    /**\n     * Events.\n     */\n\n    event Bonded(address indexed user, uint256 amount);\n    event Unbonded(address indexed user, uint256 amount);\n    event Withdrawn(address indexed user, uint256 amount);\n\n    /**\n     * Constructor.\n     */\n    constructor(IERC20 token_, uint256 duration_) StakingTimelock(duration_) {\n        token = token_;\n        _setupRole(DEFAULT_ADMIN_ROLE, _msgSender());\n        _setupRole(BOARDROOM_ROLE, _msgSender());\n    }\n\n    function totalSupply() public view returns (uint256) {\n        return _totalSupply;\n    }\n\n    function setBoardrooms(\n        IVaultBoardroom expansionBoardroom_,\n        IVaultBoardroom contractionBoardroom_\n    ) public {\n        expansionBoardroom = expansionBoardroom_;\n        contractionBoardroom = contractionBoardroom_;\n    }\n\n    function balanceOf(address who) public view returns (uint256) {\n        return _balances[who];\n    }\n\n    function totalBondedSupply() public view returns (uint256) {\n        return _totalBondedSupply;\n    }\n\n    function balanceWithoutBonded(address who) public view returns (uint256) {\n        uint256 unbondingAmount = getStakedAmount(msg.sender);\n        return _balances[who].sub(unbondingAmount);\n    }\n\n    function toggleDeposits(bool val) external onlyOwner {\n        enableDeposits = val;\n    }\n\n    function bond(uint256 amount) external virtual {\n        _bond(msg.sender, amount);\n    }\n\n    function bondFor(address who, uint256 amount) external virtual {\n        require(\n            hasRole(BOARDROOM_ROLE, _msgSender()),\n            'Vault: must have boardroom role to bond for someone else'\n        );\n\n        _bond(who, amount);\n    }\n\n    function unbond(uint256 amount) external virtual {\n        _unbond(msg.sender, amount);\n    }\n\n    function withdraw() external virtual {\n        _withdraw(msg.sender);\n    }\n\n    function _updateRewards(address who) private {\n        if (address(expansionBoardroom) != address(0))\n            expansionBoardroom.updateReward(who);\n\n        if (address(contractionBoardroom) != address(0))\n            contractionBoardroom.updateReward(who);\n    }\n\n    function _bond(address who, uint256 amount) private {\n        require(amount > 0, 'Boardroom: cannot bond 0');\n        require(enableDeposits, 'Boardroom: deposits are disabled');\n\n        _totalSupply = _totalSupply.add(amount);\n        _balances[who] = _balances[who].add(amount);\n        _totalBondedSupply = _totalBondedSupply.add(amount);\n\n        // NOTE: has to be pre-approved.\n        token.transferFrom(who, address(this), amount);\n\n        _updateRewards(who);\n\n        emit Bonded(who, amount);\n    }\n\n    function _unbond(address who, uint256 amount) private stakerExists(who) {\n        require(amount > 0, 'Boardroom: cannot unbond 0');\n\n        uint256 directorShare = _balances[who];\n\n        require(\n            directorShare >= amount,\n            'Boardroom: unbond request greater than staked amount'\n        );\n\n        _updateStakerDetails(who, amount);\n        _updateRewards(who);\n\n        _totalBondedSupply = _totalBondedSupply.sub(amount);\n\n        emit Unbonded(who, amount);\n    }\n\n    function _withdraw(address who)\n        private\n        stakerExists(who)\n        checkLockDurationFor(who)\n    {\n        uint256 directorShare = _balances[who];\n        uint256 unbondingAmount = getStakedAmount(who);\n\n        require(\n            directorShare >= unbondingAmount,\n            'Boardroom: withdraw request greater than unbonded amount'\n        );\n\n        // Reset the bonding timestamp, as we are withdrawing the entire amount.\n        _totalSupply = _totalSupply.sub(unbondingAmount);\n        _balances[who] = directorShare.sub(unbondingAmount);\n        token.transfer(who, unbondingAmount);\n\n        _updateStakerDetails(who, 0);\n        _updateRewards(who);\n\n        emit Withdrawn(who, unbondingAmount);\n    }\n}\n",
  "sourcePath": "/Users/ya98/mahadao/arthcoin-contracts/contracts/boardoom/core/Vault.sol",
  "compiler": {
    "name": "solc",
    "version": "0.8.0+commit.c7dfd78e.Emscripten.clang"
  },
  "schemaVersion": "3.3.4",
  "updatedAt": "2021-02-24T12:40:07.366Z",
  "devdoc": {
    "kind": "dev",
    "methods": {
      "getRoleAdmin(bytes32)": {
        "details": "Returns the admin role that controls `role`. See {grantRole} and {revokeRole}. To change a role's admin, use {_setRoleAdmin}."
      },
      "getRoleMember(bytes32,uint256)": {
        "details": "Returns one of the accounts that have `role`. `index` must be a value between 0 and {getRoleMemberCount}, non-inclusive. Role bearers are not sorted in any particular way, and their ordering may change at any point. WARNING: When using {getRoleMember} and {getRoleMemberCount}, make sure you perform all queries on the same block. See the following https://forum.openzeppelin.com/t/iterating-over-elements-on-enumerableset-in-openzeppelin-contracts/2296[forum post] for more information."
      },
      "getRoleMemberCount(bytes32)": {
        "details": "Returns the number of accounts that have `role`. Can be used together with {getRoleMember} to enumerate all bearers of a role."
      },
      "grantRole(bytes32,address)": {
        "details": "Grants `role` to `account`. If `account` had not been already granted `role`, emits a {RoleGranted} event. Requirements: - the caller must have ``role``'s admin role."
      },
      "hasRole(bytes32,address)": {
        "details": "Returns `true` if `account` has been granted `role`."
      },
      "owner()": {
        "details": "Returns the address of the current owner."
      },
      "renounceOwnership()": {
        "details": "Leaves the contract without owner. It will not be possible to call `onlyOwner` functions anymore. Can only be called by the current owner. NOTE: Renouncing ownership will leave the contract without an owner, thereby removing any functionality that is only available to the owner."
      },
      "renounceRole(bytes32,address)": {
        "details": "Revokes `role` from the calling account. Roles are often managed via {grantRole} and {revokeRole}: this function's purpose is to provide a mechanism for accounts to lose their privileges if they are compromised (such as when a trusted device is misplaced). If the calling account had been granted `role`, emits a {RoleRevoked} event. Requirements: - the caller must be `account`."
      },
      "revokeRole(bytes32,address)": {
        "details": "Revokes `role` from `account`. If `account` had been granted `role`, emits a {RoleRevoked} event. Requirements: - the caller must have ``role``'s admin role."
      },
      "transferOwnership(address)": {
        "details": "Transfers ownership of the contract to a new account (`newOwner`). Can only be called by the current owner."
      }
    },
    "version": 1
  },
  "userdoc": {
    "events": {
      "Bonded(address,uint256)": {
        "notice": "Events."
      }
    },
    "kind": "user",
    "methods": {
      "constructor": {
        "notice": "Constructor."
      },
      "token()": {
        "notice": "State variables."
      }
    },
    "notice": "A vault is a contract that handles only the bonding & unbonding of tokens; Rewards are handled by the boardroom contracts.",
    "version": 1
  }
}