{
  "contractName": "VestedVaultBoardroom",
  "abi": [
    {
      "inputs": [
        {
          "internalType": "contract IERC20",
          "name": "token_",
          "type": "address"
        },
        {
          "internalType": "contract Vault",
          "name": "vault_",
          "type": "address"
        },
        {
          "internalType": "uint256",
          "name": "vestFor_",
          "type": "uint256"
        }
      ],
      "stateMutability": "nonpayable",
      "type": "constructor"
    },
    {
      "anonymous": false,
      "inputs": [
        {
          "indexed": true,
          "internalType": "address",
          "name": "previousOperator",
          "type": "address"
        },
        {
          "indexed": true,
          "internalType": "address",
          "name": "newOperator",
          "type": "address"
        }
      ],
      "name": "OperatorTransferred",
      "type": "event"
    },
    {
      "anonymous": false,
      "inputs": [
        {
          "indexed": true,
          "internalType": "address",
          "name": "previousOwner",
          "type": "address"
        },
        {
          "indexed": true,
          "internalType": "address",
          "name": "newOwner",
          "type": "address"
        }
      ],
      "name": "OwnershipTransferred",
      "type": "event"
    },
    {
      "anonymous": false,
      "inputs": [
        {
          "indexed": true,
          "internalType": "address",
          "name": "user",
          "type": "address"
        },
        {
          "indexed": false,
          "internalType": "uint256",
          "name": "reward",
          "type": "uint256"
        }
      ],
      "name": "RewardAdded",
      "type": "event"
    },
    {
      "anonymous": false,
      "inputs": [
        {
          "indexed": true,
          "internalType": "address",
          "name": "user",
          "type": "address"
        },
        {
          "indexed": false,
          "internalType": "uint256",
          "name": "reward",
          "type": "uint256"
        }
      ],
      "name": "RewardPaid",
      "type": "event"
    },
    {
      "anonymous": false,
      "inputs": [
        {
          "indexed": false,
          "internalType": "uint256",
          "name": "oldPeriod",
          "type": "uint256"
        },
        {
          "indexed": false,
          "internalType": "uint256",
          "name": "period",
          "type": "uint256"
        }
      ],
      "name": "VestingPeriodChanged",
      "type": "event"
    },
    {
      "inputs": [
        {
          "internalType": "uint256",
          "name": "amount",
          "type": "uint256"
        }
      ],
      "name": "allocateSeigniorage",
      "outputs": [],
      "stateMutability": "nonpayable",
      "type": "function"
    },
    {
      "inputs": [
        {
          "internalType": "address",
          "name": "director",
          "type": "address"
        }
      ],
      "name": "getLastSnapshotIndexOf",
      "outputs": [
        {
          "internalType": "uint256",
          "name": "",
          "type": "uint256"
        }
      ],
      "stateMutability": "view",
      "type": "function"
    },
    {
      "inputs": [],
      "name": "isOperator",
      "outputs": [
        {
          "internalType": "bool",
          "name": "",
          "type": "bool"
        }
      ],
      "stateMutability": "view",
      "type": "function"
    },
    {
      "inputs": [],
      "name": "latestSnapshotIndex",
      "outputs": [
        {
          "internalType": "uint256",
          "name": "",
          "type": "uint256"
        }
      ],
      "stateMutability": "view",
      "type": "function"
    },
    {
      "inputs": [],
      "name": "operator",
      "outputs": [
        {
          "internalType": "address",
          "name": "",
          "type": "address"
        }
      ],
      "stateMutability": "view",
      "type": "function"
    },
    {
      "inputs": [],
      "name": "owner",
      "outputs": [
        {
          "internalType": "address",
          "name": "",
          "type": "address"
        }
      ],
      "stateMutability": "view",
      "type": "function"
    },
    {
      "inputs": [],
      "name": "refundReward",
      "outputs": [],
      "stateMutability": "nonpayable",
      "type": "function"
    },
    {
      "inputs": [],
      "name": "renounceOwnership",
      "outputs": [],
      "stateMutability": "nonpayable",
      "type": "function"
    },
    {
      "inputs": [],
      "name": "rewardPerShare",
      "outputs": [
        {
          "internalType": "uint256",
          "name": "",
          "type": "uint256"
        }
      ],
      "stateMutability": "view",
      "type": "function"
    },
    {
      "inputs": [],
      "name": "token",
      "outputs": [
        {
          "internalType": "contract IERC20",
          "name": "",
          "type": "address"
        }
      ],
      "stateMutability": "view",
      "type": "function"
    },
    {
      "inputs": [
        {
          "internalType": "address",
          "name": "newOperator_",
          "type": "address"
        }
      ],
      "name": "transferOperator",
      "outputs": [],
      "stateMutability": "nonpayable",
      "type": "function"
    },
    {
      "inputs": [
        {
          "internalType": "address",
          "name": "newOwner",
          "type": "address"
        }
      ],
      "name": "transferOwnership",
      "outputs": [],
      "stateMutability": "nonpayable",
      "type": "function"
    },
    {
      "inputs": [],
      "name": "vault",
      "outputs": [
        {
          "internalType": "contract Vault",
          "name": "",
          "type": "address"
        }
      ],
      "stateMutability": "view",
      "type": "function"
    },
    {
      "inputs": [],
      "name": "vestFor",
      "outputs": [
        {
          "internalType": "uint256",
          "name": "",
          "type": "uint256"
        }
      ],
      "stateMutability": "view",
      "type": "function"
    },
    {
      "inputs": [
        {
          "internalType": "uint256",
          "name": "period",
          "type": "uint256"
        }
      ],
      "name": "setVestFor",
      "outputs": [],
      "stateMutability": "nonpayable",
      "type": "function"
    },
    {
      "inputs": [],
      "name": "claimReward",
      "outputs": [
        {
          "internalType": "uint256",
          "name": "",
          "type": "uint256"
        }
      ],
      "stateMutability": "nonpayable",
      "type": "function"
    },
    {
      "inputs": [],
      "name": "claimAndReinvestReward",
      "outputs": [],
      "stateMutability": "nonpayable",
      "type": "function"
    },
    {
      "inputs": [
        {
          "internalType": "address",
          "name": "director",
          "type": "address"
        }
      ],
      "name": "updateReward",
      "outputs": [],
      "stateMutability": "nonpayable",
      "type": "function"
    }
  ],
  "bytecode": "0x60806040523480156200001157600080fd5b5060405162001b2738038062001b278339810160408190526200003491620001f4565b8282600062000042620001f0565b600180546001600160a01b0319166001600160a01b038316908117909155604051919250906000907f8be0079c531659141344cd1fd0a4f28419497f9722a3daafe3b4186f6b6457e0908290a3506200009a620001f0565b600280546001600160a01b0319166001600160a01b0392831617908190556040519116906000907f74da04524d50c64947f5dd5381ef1a4dca5cba8ed1d816243f9e48aa0b5617ed908290a3600480546001600160a01b039384166001600160a01b0319918216178255600380549390941692169190911790915560408051608081018252438152600060208201818152928201818152606083018281526005805460018101825593529251919094027f036b6384b5eca791c62761152d0c79bb0604c104a5fb6f4eb0703f3154bb3db081019190915591517f036b6384b5eca791c62761152d0c79bb0604c104a5fb6f4eb0703f3154bb3db183015591517f036b6384b5eca791c62761152d0c79bb0604c104a5fb6f4eb0703f3154bb3db282015590517f036b6384b5eca791c62761152d0c79bb0604c104a5fb6f4eb0703f3154bb3db39091015560095550620002549050565b3390565b60008060006060848603121562000209578283fd5b835162000216816200023b565b602085015190935062000229816200023b565b80925050604084015190509250925092565b6001600160a01b03811681146200025157600080fd5b50565b6118c380620002646000396000f3fe608060405234801561001057600080fd5b50600436106101165760003560e01c806396c86cfc116100a2578063c8593fb111610071578063c8593fb1146101e1578063d941b951146101f4578063f2fde38b146101fc578063fbfa77cf1461020f578063fc0c546a1461021757610116565b806396c86cfc146101b657806397ffe1d7146101be578063b4cd1f87146101d1578063b88a802f146101d957610116565b8063570ca735116100e9578063570ca7351461016b578063632447c914610180578063714b465814610193578063715018a6146101a65780638da5cb5b146101ae57610116565b806329605e771461011b5780633f9e3f04146101305780634456eda21461014e578063446a2ec814610163575b600080fd5b61012e610129366004611522565b61021f565b005b610138610273565b60405161014591906117f2565b60405180910390f35b61015661028a565b60405161014591906115ea565b6101386102b0565b6101736102c3565b6040516101459190611599565b61012e61018e366004611522565b6102d2565b6101386101a1366004611522565b6104a5565b61012e6104c3565b61017361054c565b61012e61055b565b61012e6101cc366004611569565b610692565b61012e6109c7565b610138610a39565b61012e6101ef366004611569565b610d9a565b610138610e19565b61012e61020a366004611522565b610e1f565b610173610ee0565b610173610eef565b610227610efe565b6001600160a01b031661023861054c565b6001600160a01b0316146102675760405162461bcd60e51b815260040161025e906116bf565b60405180910390fd5b61027081610f02565b50565b600554600090610284906001610f80565b90505b90565b6002546000906001600160a01b03166102a1610efe565b6001600160a01b031614905090565b60006102ba610f93565b60600151905090565b6002546001600160a01b031690565b6003546001600160a01b031633146102fc5760405162461bcd60e51b815260040161025e9061177e565b6001600160a01b03811660009081526007602052604081209061031d610273565b825490915015801561033157506001820154155b1561034157428255600182018190555b61034a83611009565b81541580159061035d5750600182015415155b80156103e657506003546040516370a0823160e01b81526001600160a01b03909116906370a0823190610394908690600401611599565b60206040518083038186803b1580156103ac57600080fd5b505afa1580156103c0573d6000803e3d6000fd5b505050506040513d601f19601f820116820180604052508101906103e49190611581565b155b156103f657600080835560018301555b600354604051631c2ac81360e01b81526000916001600160a01b031690631c2ac81390610427908790600401611599565b60206040518083038186803b15801561043f57600080fd5b505afa158015610453573d6000803e3d6000fd5b505050506040513d601f19601f820116820180604052508101906104779190611581565b6001600160a01b03909416600090815260086020908152604080832094835293905291909120929092555050565b6001600160a01b031660009081526006602052604090206004015490565b6104cb610efe565b6001600160a01b03166104dc61054c565b6001600160a01b0316146105025760405162461bcd60e51b815260040161025e906116bf565b6001546040516000916001600160a01b0316907f8be0079c531659141344cd1fd0a4f28419497f9722a3daafe3b4186f6b6457e0908390a3600180546001600160a01b0319169055565b6001546001600160a01b031690565b610563610efe565b6001600160a01b031661057461054c565b6001600160a01b03161461059a5760405162461bcd60e51b815260040161025e906116bf565b600480546040516370a0823160e01b81526001600160a01b039091169163a9059cbb91339184916370a08231916105d391309101611599565b60206040518083038186803b1580156105eb57600080fd5b505afa1580156105ff573d6000803e3d6000fd5b505050506040513d601f19601f820116820180604052508101906106239190611581565b6040518363ffffffff1660e01b81526004016106409291906115d1565b602060405180830381600087803b15801561065a57600080fd5b505af115801561066e573d6000803e3d6000fd5b505050506040513d601f19601f820116820180604052508101906102709190611549565b61069a6110b9565b156106b75760405162461bcd60e51b815260040161025e906117ac565b6106bf6110d8565b156106dc5760405162461bcd60e51b815260040161025e906117ac565b6002546001600160a01b031633146107065760405162461bcd60e51b815260040161025e906116f4565b600081116107265760405162461bcd60e51b815260040161025e90611688565b60035460408051633422f27b60e21b815290516000926001600160a01b03169163d08bc9ec916004808301926020929190829003018186803b15801561076b57600080fd5b505afa15801561077f573d6000803e3d6000fd5b505050506040513d601f19601f820116820180604052508101906107a39190611581565b9050806107b0575061098b565b60006107ba610f93565b60600151905060006107e86107e1846107db87670de0b6b3a76400006110f7565b90611103565b839061110f565b6040805160808101825243815242602082019081528183018881526060830185815260058054600181018255600091909152845160049182027f036b6384b5eca791c62761152d0c79bb0604c104a5fb6f4eb0703f3154bb3db081019190915593517f036b6384b5eca791c62761152d0c79bb0604c104a5fb6f4eb0703f3154bb3db185015591517f036b6384b5eca791c62761152d0c79bb0604c104a5fb6f4eb0703f3154bb3db2840155517f036b6384b5eca791c62761152d0c79bb0604c104a5fb6f4eb0703f3154bb3db390920191909155805492516323b872dd60e01b815293945090926001600160a01b03909216916323b872dd916108f291339130918b91016115ad565b602060405180830381600087803b15801561090c57600080fd5b505af1158015610920573d6000803e3d6000fd5b505050506040513d601f19601f820116820180604052508101906109449190611549565b50336001600160a01b03167fac24935fd910bc682b5ccb1a07b718cadf8cf2f6d1404c4f3ddc3662dae40e298660405161097e91906117f2565b60405180910390a2505050505b50436000908152602081815260408083203284529091528082208054600160ff1991821681179092553384529190922080549091169091179055565b60006109d1610a39565b600354604051636082d19960e11b81529192506001600160a01b03169063c105a33290610a0490339085906004016115d1565b600060405180830381600087803b158015610a1e57600080fd5b505af1158015610a32573d6000803e3d6000fd5b5050505050565b6003546040516370a0823160e01b815260009182916001600160a01b03909116906370a0823190610a6e903390600401611599565b60206040518083038186803b158015610a8657600080fd5b505afa158015610a9a573d6000803e3d6000fd5b505050506040513d601f19601f82011682018060405250810190610abe9190611581565b11610adb5760405162461bcd60e51b815260040161025e90611738565b610ae433611009565b3360009081526006602052604090206001015480610b06576000915050610287565b6005805460009190610b1a90600190611860565b81548110610b3857634e487b7160e01b600052603260045260246000fd5b9060005260206000209060040201600101549050610b616009548261110f90919063ffffffff16565b4210610bb75733600090815260066020526040902060038101549054610b939190610b8d90859061110f565b90610f80565b33600090815260066020526040812060018101829055818155600301559150610cba565b6000610bc34283610f80565b90506000610be26009546107db6103e8856110f790919063ffffffff16565b33600090815260066020526040902060020154909150831015610c375733600090815260066020526040812060020154610c1d904290610f80565b600954909150610c33906107db836103e86110f7565b9150505b610c476103e86107db83876110f7565b33600090815260066020526040902060030154909450610c67908561110f565b336000908152600660205260409020600381019190915560020154831115610cb75733600090815260066020526040902054610ca490859061110f565b3360009081526006602052604081205593505b50505b33600081815260066020526040908190204260029091015560048054915163a9059cbb60e01b81526001600160a01b039092169263a9059cbb92610d00928791016115d1565b602060405180830381600087803b158015610d1a57600080fd5b505af1158015610d2e573d6000803e3d6000fd5b505050506040513d601f19601f82011682018060405250810190610d529190611549565b50336001600160a01b03167fe2403640ba68fed3a2f88b7557551d1993f84b99bb10ff833f0cf8db0c5e048683604051610d8c91906117f2565b60405180910390a250905090565b610da2610efe565b6001600160a01b0316610db361054c565b6001600160a01b031614610dd95760405162461bcd60e51b815260040161025e906116bf565b7fb933955a59ebc35a1746e9f59ca4e09fc13169db9f1186a4941e117bd269c82460095482604051610e0c9291906117fb565b60405180910390a1600955565b60095481565b610e27610efe565b6001600160a01b0316610e3861054c565b6001600160a01b031614610e5e5760405162461bcd60e51b815260040161025e906116bf565b6001600160a01b038116610e845760405162461bcd60e51b815260040161025e906115f5565b6001546040516001600160a01b038084169216907f8be0079c531659141344cd1fd0a4f28419497f9722a3daafe3b4186f6b6457e090600090a3600180546001600160a01b0319166001600160a01b0392909216919091179055565b6003546001600160a01b031681565b6004546001600160a01b031681565b3390565b6001600160a01b038116610f285760405162461bcd60e51b815260040161025e9061163b565b6040516001600160a01b038216906000907f74da04524d50c64947f5dd5381ef1a4dca5cba8ed1d816243f9e48aa0b5617ed908290a3600280546001600160a01b0319166001600160a01b0392909216919091179055565b6000610f8c8284611860565b9392505050565b610f9b6114fa565b6005610fa5610273565b81548110610fc357634e487b7160e01b600052603260045260246000fd5b9060005260206000209060040201604051806080016040529081600082015481526020016001820154815260200160028201548152602001600382015481525050905090565b6001600160a01b03811660009081526006602052604081206005805491929161103490600190611860565b8154811061105257634e487b7160e01b600052603260045260246000fd5b90600052602060002090600402016001015490508082600201541015611096576003820154600183015461108591610f80565b825560006001830181905560038301555b61109f8361111b565b60018301556110ac610273565b8260040181905550505050565b4360009081526020818152604080832032845290915290205460ff1690565b4360009081526020818152604080832033845290915290205460ff1690565b6000610f8c8284611841565b6000610f8c8284611821565b6000610f8c8284611809565b600080611126610f93565b606001519050600061113784611481565b606001519050600080600560016005805490506111549190611860565b8154811061117257634e487b7160e01b600052603260045260246000fd5b906000526020600020906004020160010154905060008160066000896001600160a01b03166001600160a01b0316815260200190815260200160002060020154106111d8576001600160a01b0387166000908152600660205260409020600101546111db565b60005b905083611236576001600160a01b038716600090815260076020526040902060010154600580548290811061122057634e487b7160e01b600052603260045260246000fd5b9060005260206000209060040201600301549450505b6005546002101561140357611249610273565b6001600160a01b0388166000908152600760205260409020600101541015611403576000600561127c6001610b8d610273565b8154811061129a57634e487b7160e01b600052603260045260246000fd5b9060005260206000209060040201600301549050600083600660008b6001600160a01b03166001600160a01b031681526020019081526020016000206002015410611300576001600160a01b038916600090815260066020526040902060010154611303565b60005b90506113b5670de0b6b3a76400006107db61131e858a610f80565b600360009054906101000a90046001600160a01b03166001600160a01b0316631c2ac8138e6040518263ffffffff1660e01b815260040161135f9190611599565b60206040518083038186803b15801561137757600080fd5b505afa15801561138b573d6000803e3d6000fd5b505050506040513d601f19601f820116820180604052508101906113af9190611581565b906110f7565b94506113c1858261110f565b6001600160a01b038a166000908152600660205260409020549095506113e7908661110f565b6001600160a01b038a1660009081526006602052604090205550505b600061146982611463670de0b6b3a76400006107db6114228b8b610f80565b600360009054906101000a90046001600160a01b03166001600160a01b0316631c2ac8138f6040518263ffffffff1660e01b815260040161135f9190611599565b9061110f565b90506114758185610f80565b98975050505050505050565b6114896114fa565b6005611494836104a5565b815481106114b257634e487b7160e01b600052603260045260246000fd5b90600052602060002090600402016040518060800160405290816000820154815260200160018201548152602001600282015481526020016003820154815250509050919050565b6040518060800160405280600081526020016000815260200160008152602001600081525090565b600060208284031215611533578081fd5b81356001600160a01b0381168114610f8c578182fd5b60006020828403121561155a578081fd5b81518015158114610f8c578182fd5b60006020828403121561157a578081fd5b5035919050565b600060208284031215611592578081fd5b5051919050565b6001600160a01b0391909116815260200190565b6001600160a01b039384168152919092166020820152604081019190915260600190565b6001600160a01b03929092168252602082015260400190565b901515815260200190565b60208082526026908201527f4f776e61626c653a206e6577206f776e657220697320746865207a65726f206160408201526564647265737360d01b606082015260800190565b6020808252602d908201527f6f70657261746f723a207a65726f206164647265737320676976656e20666f7260408201526c103732bb9037b832b930ba37b960991b606082015260800190565b6020808252601c908201527f426f617264726f6f6d3a2043616e6e6f7420616c6c6f63617465203000000000604082015260600190565b6020808252818101527f4f776e61626c653a2063616c6c6572206973206e6f7420746865206f776e6572604082015260600190565b60208082526024908201527f6f70657261746f723a2063616c6c6572206973206e6f7420746865206f70657260408201526330ba37b960e11b606082015260800190565b60208082526026908201527f426f617264726f6f6d3a20546865206469726563746f7220646f6573206e6f7460408201526508195e1a5cdd60d21b606082015260800190565b602080825260149082015273109bd85c991c9bdbdb4e881b9bdd081d985d5b1d60621b604082015260600190565b60208082526026908201527f436f6e747261637447756172643a206f6e6520626c6f636b2c206f6e652066756040820152653731ba34b7b760d11b606082015260800190565b90815260200190565b918252602082015260400190565b6000821982111561181c5761181c611877565b500190565b60008261183c57634e487b7160e01b81526012600452602481fd5b500490565b600081600019048311821515161561185b5761185b611877565b500290565b60008282101561187257611872611877565b500390565b634e487b7160e01b600052601160045260246000fdfea2646970667358221220b9e26a2a6a931dc0b49c64440972fdb9aeb8a1c322ef102b9b7d75466a6a7fa764736f6c63430008000033",
  "immutableReferences": {},
  "source": "// SPDX-License-Identifier: MIT\n\npragma solidity ^0.8.0;\n\nimport {IERC20} from '@openzeppelin/contracts/contracts/token/ERC20/IERC20.sol';\nimport {SafeMath} from '@openzeppelin/contracts/contracts/math/SafeMath.sol';\nimport {Vault} from './Vault.sol';\nimport {VaultBoardroom} from './VaultBoardroom.sol';\n\ncontract VestedVaultBoardroom is VaultBoardroom {\n    // For how much time should vesting take place.\n    uint256 public vestFor;\n    using SafeMath for uint256;\n\n    /**\n     * Event.\n     */\n    event VestingPeriodChanged(uint256 oldPeriod, uint256 period);\n\n    /**\n     * Constructor.\n     */\n    constructor(\n        IERC20 token_,\n        Vault vault_,\n        uint256 vestFor_\n    ) VaultBoardroom(token_, vault_) {\n        vestFor = vestFor_;\n    }\n\n    /**\n     * Views/Getters.\n     */\n    function earned(address director) internal override returns (uint256) {\n        // Get the latest share per rewards i should get.\n        uint256 latestRPS = getLatestSnapshot().rewardPerShare;\n        // Get the last share per rewards i have claimed.\n        uint256 storedRPS = getLastSnapshotOf(director).rewardPerShare;\n\n        uint256 prevEpochRewards = 0;\n        uint256 latestFundingTime = boardHistory[boardHistory.length - 1].time;\n\n        // If last time rewards claimed were less than the latest epoch start time,\n        // then we don't consider those rewards in further calculations and mark them\n        // as pending.\n        uint256 rewardEarnedCurrEpoch =\n            (\n                // If i am have unclaimed amount from the previous epoch\n                // this `rewardEarnedCurrEpoch` should be set to 0\n                // because i just moved `rewardEarnedCurrEpoch` to  `rewardPending`\n                // in the _updateRewards func.\n                // Else it should be kept as it is.\n                directors[director].lastClaimedOn < latestFundingTime\n                    ? 0\n                    : directors[director].rewardEarnedCurrEpoch\n            );\n\n        // If storedRPS is 0, that means we are claiming rewards for the first time, hence we need\n        // to check when we bonded and accordingly calculate the final rps.\n        if (storedRPS == 0) {\n            uint256 firstBondedSnapshotIndex =\n                bondingHistory[director].snapshotIndexWhenFirstBonded;\n\n            // This gets the last epoch at which i bonded.\n            // if i bonded after 1st allocatin this would get rewardPerShare for 1st epoch.\n            // If i bonded after 2nd allocation would get rewardPerShare for 2nd epoch.\n            // and 0 if 1 bonded before 1st.\n            storedRPS = boardHistory[firstBondedSnapshotIndex].rewardPerShare;\n        }\n\n        // If the allocations are more than 2 the basically there's a possiblity\n        // that i have not claimed rewards for more than 1 epoch.\n        // this could have condition that i've not claimed at all or i have claimed 1st epoch\n        // but not 2nd and now claiming at 3rd(assuming curr epoch is 3rd)\n        // also we need to make sure that here, this code runs only if\n        // i've bonded before the latest epoch else, overfollow occurs in sub.\n        if (boardHistory.length > 2) {\n            if (\n                bondingHistory[director].snapshotIndexWhenFirstBonded <\n                latestSnapshotIndex() // this condition is added as overflow issues were occuring in case where i bond after latestEpoch.\n            ) {\n                // Get the last epohc's rewardPerShare.\n                uint256 lastRPS =\n                    boardHistory[latestSnapshotIndex().sub(1)].rewardPerShare;\n\n                // Get the pending rewards from prev epochs.\n                uint256 prevToPrevEpochsRewardEarned =\n                    (\n                        directors[director].lastClaimedOn < latestFundingTime\n                            ? 0\n                            : directors[director].rewardEarnedCurrEpoch\n                    );\n\n                // Get the reward i deserved from the last epoch to the last epoch i already claimed.\n                // if they are same this should be 0.\n                prevEpochRewards = vault\n                    .balanceWithoutBonded(director)\n                    .mul(lastRPS.sub(storedRPS))\n                    .div(1e18);\n\n                // add the penidng rewards if any.\n                prevEpochRewards = prevEpochRewards.add(\n                    prevToPrevEpochsRewardEarned\n                );\n\n                // mark this as pending as these are till the last epoch.\n                directors[director].rewardPending = directors[director]\n                    .rewardPending\n                    .add(prevEpochRewards);\n            }\n        }\n\n        // calculate the reward from latest epoch to epoch i claimed last.\n        uint256 rewards =\n            vault\n                .balanceWithoutBonded(director)\n                .mul(latestRPS.sub(storedRPS))\n                .div(1e18)\n                .add(rewardEarnedCurrEpoch);\n\n        // now we have done a duplication caluclation, as in we have calcuated rewards from latest to lastClaimed\n        // and from last to lastClaimed, i.e in case of 3 epoch lets say we claimed at 1.\n        // so we've done 3 - 1 && 2 - 1. both of this contain (2 - 1). hece we subtract that duplication here.\n        return rewards.sub(prevEpochRewards);\n    }\n\n    /**\n     * Setters.\n     */\n    function setVestFor(uint256 period) public onlyOwner {\n        emit VestingPeriodChanged(vestFor, period);\n        vestFor = period;\n    }\n\n    function claimReward() public override directorExists returns (uint256) {\n        _updateReward(msg.sender);\n\n        // Get the current reward of the epoch.\n        uint256 reward = directors[msg.sender].rewardEarnedCurrEpoch;\n        if (reward <= 0) return 0;\n\n        uint256 latestFundingTime = boardHistory[boardHistory.length - 1].time;\n\n        // If past the vesting period, then claim entire reward.\n        if (block.timestamp >= latestFundingTime.add(vestFor)) {\n            // If past latest funding time and vesting period then we claim entire 100%\n            // reward from both previous and current and subtract the reward already claimed\n            // in this epoch.\n            reward = reward.add(directors[msg.sender].rewardPending).sub(\n                directors[msg.sender].rewardClaimedCurrEpoch\n            );\n\n            // Reset the counters to 0 as we claimed all.\n            directors[msg.sender].rewardEarnedCurrEpoch = 0;\n            directors[msg.sender].rewardPending = 0;\n            directors[msg.sender].rewardClaimedCurrEpoch = 0;\n        }\n        // If not past the vesting period, then claim reward as per linear vesting.\n        else {\n            uint256 timeSinceLastFunded =\n                block.timestamp.sub(latestFundingTime);\n\n            // Calculate reward to be given assuming msg.sender has not claimed in current\n            // vesting cycle(8hr cycle).\n            // NOTE: here we are multiplying by 1e3 to get precise decimal values.\n            uint256 timelyRewardRatio =\n                timeSinceLastFunded.mul(1e3).div(vestFor);\n\n            if (directors[msg.sender].lastClaimedOn > latestFundingTime) {\n                /*\n                  And if msg.sender has claimed atleast once after the new vesting kicks in,\n                  then we need to find the ratio for current time.\n\n                  Let's say we want vesting to be for 10 seconds.\n                  Then if we try to claim rewards at every 1 second then, we should get\n                  1/10 of the rewards every second.\n                  So for 1st second reward could be 1/10, for next also 1/10, we can convert\n                  this to `(timeNext-timeOld)/timePeriod`.\n                  For 1st second: (1-0)/10\n                  For 2nd second: (2-1)/10\n                  and so on.\n                */\n                uint256 timeSinceLastClaimed =\n                    block.timestamp.sub(directors[msg.sender].lastClaimedOn);\n\n                // NOTE: here we are multiplying by 1e3 to get precise decimal values.\n                timelyRewardRatio = timeSinceLastClaimed.mul(1e3).div(vestFor);\n            }\n\n            // Update reward as per vesting.\n            // NOTE: here we are nullyfying the multplication by 1e3 effect on the top.\n            reward = timelyRewardRatio.mul(reward).div(1e3);\n\n            // We add the reward claimed in this epoch to the variables.\n            // We basically do this to maintain a log of original reward, so we use that in\n            // vesting. and we use this counter to know how much from the original reward\n            // we have claimed in the current claim under the vesting period. Otherwise it becomes\n            // kind of curve vesting.\n            directors[msg.sender].rewardClaimedCurrEpoch = (\n                directors[msg.sender].rewardClaimedCurrEpoch.add(reward)\n            );\n\n            // If this is the first claim inside this vesting period, then we also\n            // give away 100% of previous vesting period's pending rewards.\n            if (directors[msg.sender].lastClaimedOn < latestFundingTime) {\n                // HERE since this is the first claim we don't need to subtract claim reward in this epoch variable.\n                reward = reward.add(directors[msg.sender].rewardPending);\n                directors[msg.sender].rewardPending = 0;\n            }\n        }\n\n        directors[msg.sender].lastClaimedOn = block.timestamp;\n\n        token.transfer(msg.sender, reward);\n        emit RewardPaid(msg.sender, reward);\n\n        return reward;\n    }\n\n    function claimAndReinvestReward() external virtual {\n        // NOTE: amount has to be approved from the frontend.\n        uint256 reward = claimReward();\n        vault.bondFor(msg.sender, reward);\n    }\n\n    function updateReward(address director) public onlyVault {\n        BondingSnapshot storage snapshot = bondingHistory[director];\n\n        uint256 latestSnapshotIdx = latestSnapshotIndex();\n\n        // This means, we are bonding for the first time.\n        // Hence we save the timestamp when, we first bond and the\n        // allocation index no. when we first bond.\n        if (\n            snapshot.firstBondedOn == 0 &&\n            snapshot.snapshotIndexWhenFirstBonded == 0\n        ) {\n            snapshot.firstBondedOn = block.timestamp;\n            // NOTE: probably will revert/throw error in case not allocated yet.\n            snapshot.snapshotIndexWhenFirstBonded = latestSnapshotIdx;\n        }\n\n        // Update the rewards when bonding, unbonding and withdrawing.\n        // In case of withdrawing 100%, unbond and withdraw will both call this.\n        // However, the balanceWIthBonded would be 0 if we are unbonding, hence\n        // ideally effect should be same as withdrawing.\n        _updateReward(director);\n\n        // This means withdrawing, Hence reset the counters.\n        if (\n            snapshot.firstBondedOn != 0 &&\n            snapshot.snapshotIndexWhenFirstBonded != 0 &&\n            vault.balanceOf(director) == 0\n        ) {\n            snapshot.firstBondedOn = 0;\n            snapshot.snapshotIndexWhenFirstBonded = 0;\n        }\n\n        // Update the balance while recording this activity(whether withdraw of bond).\n        uint256 balance = vault.balanceWithoutBonded(director);\n        directorBalanceForEpoch[director][latestSnapshotIdx] = balance;\n    }\n\n    function _updateReward(address director) private {\n        Boardseat storage seat = directors[director];\n\n        // Set the default latest funding time to 0.\n        // This represents that boardroom has not been allocated seigniorage yet.\n        uint256 latestFundingTime = boardHistory[boardHistory.length - 1].time;\n\n        // If rewards are updated before epoch start of the current,\n        // then we mark claimable rewards as pending and set the\n        // current earned rewards to 0.\n        if (seat.lastClaimedOn < latestFundingTime) {\n            // This basically set's current reward's which are not claimed as pending.\n            // Since the user's last claim was before  the\n            // latestFundingTime(epoch timestamp when allocated latest).\n            seat.rewardPending = seat.rewardEarnedCurrEpoch.sub(\n                seat.rewardClaimedCurrEpoch\n            );\n            // Reset the counters for the latest epoch.\n            seat.rewardEarnedCurrEpoch = 0;\n            seat.rewardClaimedCurrEpoch = 0;\n        }\n\n        // Generate fresh rewards for the current epoch.\n        // This should only include reward for curr epoch.\n        // If any remaining they are makred as pending.\n        seat.rewardEarnedCurrEpoch = earned(director);\n        // Update the last allocation index no. when claimed.\n        seat.lastSnapshotIndex = latestSnapshotIndex();\n    }\n}\n",
  "sourcePath": "/Users/ya98/mahadao/arthcoin-contracts/contracts/boardoom/core/VestedVaultBoardroom.sol",
  "compiler": {
    "name": "solc",
    "version": "0.8.0+commit.c7dfd78e.Emscripten.clang"
  },
  "schemaVersion": "3.3.4",
  "updatedAt": "2021-02-24T12:40:07.385Z",
  "devdoc": {
    "kind": "dev",
    "methods": {
      "owner()": {
        "details": "Returns the address of the current owner."
      },
      "renounceOwnership()": {
        "details": "Leaves the contract without owner. It will not be possible to call `onlyOwner` functions anymore. Can only be called by the current owner. NOTE: Renouncing ownership will leave the contract without an owner, thereby removing any functionality that is only available to the owner."
      },
      "transferOwnership(address)": {
        "details": "Transfers ownership of the contract to a new account (`newOwner`). Can only be called by the current owner."
      }
    },
    "version": 1
  },
  "userdoc": {
    "events": {
      "RewardPaid(address,uint256)": {
        "notice": "Events."
      },
      "VestingPeriodChanged(uint256,uint256)": {
        "notice": "Event."
      }
    },
    "kind": "user",
    "methods": {
      "constructor": {
        "notice": "Constructor."
      },
      "latestSnapshotIndex()": {
        "notice": "Views/Getters."
      },
      "setVestFor(uint256)": {
        "notice": "Setters."
      },
      "vault()": {
        "notice": "State variables."
      }
    },
    "version": 1
  }
}